S0100000504F53544C4142342E73726563CB
S11300000C9434000C9451000C9451000C94510045
S11300100C948A000C9451000C9451000C945100DF
S11300200C9451000C9451000C9451000C94510008
S11300300C9451000C9451000C9451000C945100F8
S11300400C9451000C9451000C9451000C945100E8
S11300500C9451000C946C000C9451000C945100BD
S11300600C9451000C94510011241FBECFEFD8E022
S1130070DEBFCDBF11E0A0E0B1E0E8E9F2E002C0EC
S113008005900D92A031B107D9F721E0A0E1B1E0CC
S113009001C01D92A731B207E1F70E94D1000C9470
S11300A04A010C940000F8941092C1008FEF8AB9B1
S11300B01BB884B915B887B187B988B1806388B98A
S11300C0E8E6F0E0808182608083ECE6F0E0808105
S11300D080638083789408951F920F920FB60F92D5
S11300E011248F939F93EF93FF938091790090E075
S11300F09093150180931401EAE7F0E08081806118
S11301008083FF91EF919F918F910F900FBE0F907D
S11301101F9018951F920F920FB60F9211248F9370
S1130120349906C0809116018F5F809316011AC01E
S1130130359906C08091160181508093160112C032
S1130140349907C0809116018F3F19F4109216015B
S113015009C0359907C0809116018F3F19F48EEFBD
S1130160809316018F910F900FBE0F901F901895DA
S1130170ECE7F0E0108280818064808380818F7757
S11301808083808180628083EAE7F0E0108280814E
S11301908068808380818860808380818760808399
S11301A008950E9453000E94B800EAE7F0E08081BD
S11301B08064808380911401909115019C0199239E
S11301C014F4215F3F4F359527953595279535953F
S11301D027953595279530931301209312018F703D
S11301E09078992324F40197806F9F6F01969093E0
S11301F0110180931001F901E050FF4F80818BB908
S113020085B18E7F85B985B18B7F85B985B18260D3
S113021085B98FE19EE40197F1F700C00000E091F9
S11302201001F0911101E050FF4F80818BB985B12D
S11302308E7F85B985B18D7F85B985B1846085B997
S11302408FE19EE40197F1F700C000008091160150
S11302508BB985B1816085B985B18D7F85B985B14B
S11302608B7F85B98FE19EE40197F1F700C0000010
S11302708091160190E020911401309115018217AC
S1130280930724F485B1886085B98FCF85B1877FC2
S10B029085B98BCFF894FFCF70
S11302983F065B4F666D7D077F6F777C395E7971AA
S9030000FC
